:0400000007EF00F016
:0A0008006E820BED08F0ADEF0FF073
:10100000003738392F3435362A3132332D23303DED
:051010002B2569000022
:101016000600FACF5CF0FBCF5DF0D9CF5EF0DACFF9
:101026005FF0F3CF60F0F4CF61F0F2A81DEF08F0A7
:101036001FEF08F028EF08F0F2A224EF08F026EFE1
:1010460008F028EF08F08EEC10F0F0A62DEF08F06F
:101056002FEF08F038EF08F0F0A034EF08F036EF85
:1010660008F038EF08F077EC10F0F0A83DEF08F044
:101076003FEF08F048EF08F0F0A244EF08F046EF23
:1010860008F048EF08F060EC10F0F2A64DEF08F01B
:101096004FEF08F06AEF08F0F2A054EF08F056EFB1
:1010A60008F06AEF08F081A85BEF08F05DEF08F042
:1010B6006AEF08F01804D8A463EF08F065EF08F0AB
:1010C6006AEF08F0000E186E000E1AEC11F0F2A688
:1010D6006FEF08F071EF08F08CEF08F0F2A076EFF2
:1010E60008F078EF08F08CEF08F081B87DEF08F093
:1010F6007FEF08F08CEF08F01850D8A485EF08F0C1
:1011060087EF08F08CEF08F0010E186E010E1AEC4E
:1011160011F0F2A691EF08F093EF08F0AEEF08F0A9
:10112600F2A098EF08F09AEF08F0AEEF08F081AA67
:101136009FEF08F0A1EF08F0AEEF08F01704D8A46F
:10114600A7EF08F0A9EF08F0AEEF08F0000E176E53
:10115600000E0DEC11F0F2A6B3EF08F0B5EF08F0B3
:10116600D0EF08F0F2A0BAEF08F0BCEF08F0D0EF2D
:1011760008F081BAC1EF08F0C3EF08F0D0EF08F02D
:101186001750D8A4C9EF08F0CBEF08F0D0EF08F05D
:10119600010E176E010E0DEC11F0F2A6D5EF08F058
:1011A600D7EF08F0F2EF08F0F2A0DCEF08F0DEEF80
:1011B60008F0F2EF08F081ACE3EF08F0E5EF08F095
:1011C600F2EF08F01604D8A4EBEF08F0EDEF08F004
:1011D600F2EF08F0000E166E000E00EC11F0F2A60B
:1011E600F7EF08F0F9EF08F014EF09F0F2A0FEEFC0
:1011F60008F000EF09F014EF09F081BC05EF09F0E3
:1012060007EF09F014EF09F01650D8A40DEF09F016
:101216000FEF09F014EF09F0010E166E010E00EC47
:1012260011F0F2A619EF09F01BEF09F036EF09F0FD
:10123600F2A020EF09F022EF09F036EF09F081AEB7
:1012460027EF09F029EF09F036EF09F01504D8A4C5
:101256002FEF09F031EF09F036EF09F0000E156EA9
:10126600000EF3EC10F0F2A63BEF09F03DEF09F0AB
:1012760058EF09F0F2A042EF09F044EF09F058EFF9
:1012860009F081BE49EF09F04BEF09F058EF09F07C
:101296001550D8A451EF09F053EF09F058EF09F0B3
:1012A600010E156E010EF3EC10F061C0F4FF60C084
:1012B600F3FF5FC0DAFF5EC0D9FF5DC0FBFF5CC015
:1012C600FAFF6E921100010E6A6E62506310D8B476
:1012D6006FEF09F071EF09F082EF09F062C0D9FFF4
:1012E60063C0DAFFDF30E832E832070B646E070EC0
:1012F600646480EF09F082EF09F0E5EF09F0000E73
:101306006A6E06EF0AF062C0D9FF63C0DAFFDF300B
:10131600E832E832070B646E010E656E642A96EFBA
:1013260009F0D8906536642E94EF09F06550FF0AEF
:10133600666E62C0D9FF63C0DAFFDF50070B676EC7
:101346006750020D0B0EF324D96E000EF420DA6EF0
:10135600DECF68F0DDCF69F068C0D9FF69C0DAFF7B
:101366006650DF1606EF0AF062C0D9FF63C0DAFFE7
:10137600DF30E832E832070B646E010E656E642AD0
:10138600C7EF09F0D8906536642EC5EF09F062C044
:10139600D9FF63C0DAFFDF50070B666E6650020D99
:1013A6000B0EF324D96E000EF420DA6EDECF67F052
:1013B600DDCF68F067C0D9FF68C0DAFF6550DF127D
:1013C60006EF0AF062C0D9FF63C0DAFFDFBCEEEFBA
:1013D60009F0F1EF09F0010EF2EF09F0000E646E6C
:1013E600656A6550000AD8B4FBEF09F082EF09F090
:1013F6006450000AD8B486EF09F0010AD8B4B7EFF2
:1014060009F082EF09F06A501200000E00019F6F8A
:101416009B519C11D8A412EF0AF014EF0AF018EFB2
:101426000AF0000EA06FA3EF0AF09BC094F09CC0D8
:1014360095F093EC0EF00001A06F010E9B25946FC2
:10144600000E9C21956F93EC0EF00001A06F000E2C
:101456009F6F9F519B259D6F000E9C219E6F020ED4
:101466009D25946F000E9E21956F93EC0EF0000162
:101476009F2B030E9F6542EF0AF044EF0AF02CEF14
:101486000AF0340E00019D6FF10EE82EFED79D2F57
:10149600FCD700D09BC097F09CC098F0380E000196
:1014A600996FD9EC0DF00D0E00019D6FFB0EE82E25
:1014B600FED79D2FFCD700D09BC097F09CC098F01C
:1014C600380E0001996FD9EC0DF0500EE82EFED7BC
:1014D6009BC097F09CC098F0380E0001996FD9EC2C
:1014E6000DF09BC097F09CC098F0010E0001996F1B
:1014F600D9EC0DF09BC097F09CC098F0020E00014D
:10150600996FD9EC0DF09BC097F09CC098F0060E31
:101516000001996FD9EC0DF09BC097F09CC098F034
:101526000C0E0001996FD9EC0DF09BC097F09CC092
:1015360098F0280E0001996FD9EC0DF00001A06F0C
:10154600A0511200010E6B6E62506310D8B4AEEF5C
:101556000AF0B0EF0AF0C1EF0AF062C0D9FF63C02B
:10156600DAFFDF30E832E832070B656E070E656496
:10157600BFEF0AF0C1EF0AF024EF0BF0000E6B6E1E
:1015860039EF0BF062C0D9FF63C0DAFFDF30E83213
:10159600E832070B656E010E666E652AD5EF0AF016
:1015A600D8906636652ED3EF0AF06650FF0A676E4E
:1015B60062C0D9FF63C0DAFFDF50070B686E685060
:1015C600020D010EF324D96E000EF420DA6EDECF82
:1015D60069F0DDCF6AF069C0D9FF6AC0DAFF6750EB
:1015E600DF1639EF0BF062C0D9FF63C0DAFFDF30D8
:1015F600E832E832070B656E010E666E652A06EF65
:101606000BF0D8906636652E04EF0BF062C0D9FF5A
:1016160063C0DAFFDF50070B676E6750020D010EDD
:10162600F324D96E000EF420DA6EDECF68F0DDCF3B
:1016360069F068C0D9FF69C0DAFF6650DF1239EF7A
:101646000BF06450656E666A6650000AD8B42EEFD9
:101656000BF0C1EF0AF06550000AD8B4C5EF0AF0E6
:10166600010AD8B4F6EF0AF0C1EF0AF06B50120087
:10167600010E666E62506310D8A444EF0BF046EF7D
:101686000BF0B0EF0BF0000E666ECFEF0BF020EE16
:1016960003F06250D9266350DA22DF50D8A456EF01
:1016A6000BF058EF0BF05BEF0BF0F19CCFEF0BF06C
:1016B60020EE03F06250D9266350DA22DE04D8A465
:1016C60067EF0BF069EF0BF0CFEF0BF0F18CCFEF7C
:1016D6000BF020EE03F06250D9266350DA22DF5079
:1016E600D8A478EF0BF07AEF0BF07DEF0BF0F19AC0
:1016F600CFEF0BF020EE03F06250D9266350DA22CA
:10170600DE04D8A489EF0BF08BEF0BF0CFEF0BF0D4
:10171600F18ACFEF0BF020EE03F06250D92663502A
:10172600DA22DF50D8A49AEF0BF09CEF0BF09FEF74
:101736000BF0F198CFEF0BF020EE03F06250D926B4
:101746006350DA22DE04D8A4ABEF0BF0ADEF0BF05A
:10175600CFEF0BF0F188CFEF0BF020EE04F06250E4
:10176600D9266350DA22DF50646E656A6550000A36
:10177600D8B4C0EF0BF0CFEF0BF06450000AD8B42A
:101786004AEF0BF0010AD8B46CEF0BF0030AD8B499
:101796008EEF0BF0CFEF0BF066501200000E00013B
:1017A600A36F9F51A011D8A4DBEF0BF0DDEF0BF078
:1017B600E1EF0BF0000EA46F63EF0CF09FC094F006
:1017C600A0C095F093EC0EF00001A46F010E9F25CA
:1017D600946F000EA021956F93EC0EF00001A46F9C
:1017E600000EA36FA3519F25A16F000EA021A26F2B
:1017F600020EA125946F000EA221956F93EC0EF0B8
:101806000001A32B070EA3650BEF0CF00DEF0CF0F8
:10181600F5EF0BF0340E0001A16FF10EE82EFED7A6
:10182600A12FFCD700D09FC096F0A0C097F0380E2D
:101836000001986FBAEC0CF00D0E0001A16FFB0EC3
:10184600E82EFED7A12FFCD700D09FC096F0A0C0EF
:1018560097F0380E0001986FBAEC0CF0500EE82E97
:10186600FED79FC096F0A0C097F0380E0001986F83
:10187600BAEC0CF09FC096F0A0C097F0010E0001E4
:10188600986FBAEC0CF09FC096F0A0C097F0020ECD
:101896000001986FBAEC0CF09FC096F0A0C097F0CC
:1018A600060E0001986FBAEC0CF09FC096F0A0C02F
:1018B60097F00C0E0001986FBAEC0CF00001A46FC3
:1018C600A451120065506610D8A46CEF0CF06EEFB0
:1018D6000CF099EF0CF0000E696EB8EF0CF065C0D5
:1018E600D9FF66C0DAFFDECF62F0DDCF63F0CFEC62
:1018F60010F0696EB8EF0CF065C0D9FF66C0DAFF6C
:10190600DECF62F0DDCF63F0BAEC10F0696EB8EFAF
:101916000CF065C0D9FF66C0DAFFDECF62F0DDCF1E
:1019260063F0A5EC10F0696EB8EF0CF020EE04F051
:101936006550D9266650DA22DF50676E686A6850AD
:10194600000AD8B4A9EF0CF06EEF0CF06750000A4D
:10195600D8B472EF0CF0010AD8B47FEF0CF0030A8A
:10196600D8B48CEF0CF06EEF0CF069501200000E3C
:1019760000019E6F96519711D8A4C4EF0CF0C6EFE4
:101986000CF0CAEF0CF0000E9D6F05EF0DF096C03F
:1019960062F097C063F0000E646EA5EC0AF0000ECC
:1019A60000019E6F9E519625996F000E97219A6FA2
:1019B600020E9925626E000E9A21636E9EC09BF000
:1019C60098C09CF09B2BEAEF0CF0D8909C339B2F91
:1019D600E8EF0CF000019C51010B646EA5EC0AF0D7
:1019E60000019E2B070E9E65FBEF0CF0FDEF0CF041
:1019F600D5EF0CF096C094F097C095F0D8EC0FF0A8
:101A060000019D6F9D51120051505210D8B40EEF37
:101A16000DF010EF0DF021EF0DF051C0D9FF52C0BF
:101A2600DAFFDF30E832E832070B536E070E5364F5
:101A36001FEF0DF021EF0DF023EF0DF04FEF0DF03E
:101A460051C0D9FF52C0DAFFDF30E832E832070B67
:101A5600536E010E546E532A33EF0DF0D890543660
:101A6600532E31EF0DF051C0D9FF52C0DAFFDF50CF
:101A7600070B556E5550020D010EF324D96E000E5C
:101A8600F420DA6EDECF56F0DDCF57F056C0D9FF20
:101A960057C0DAFF5450DF1A120000019451951115
:101AA600D8A458EF0DF05AEF0DF05EEF0DF0000ED2
:101AB6006C6E96EF0DF0020E9425626E000E952167
:101AC600636E9651010B646EA5EC0AF06C6E030E04
:101AD60000019425626E000E9521636ED8909631B2
:101AE600010B646EA5EC0AF06C6E040E00019425E1
:101AF600626E000E9521636E9641E8423F0B010B24
:101B0600646EA5EC0AF06C6E050E00019425626EFB
:101B1600000E9521636E9639E8461F0B010B646E25
:101B2600A5EC0AF06C6E6C501200010E00019A6F63
:101B360097519811D8A4A2EF0DF0A4EF0DF0A8EFDD
:101B46000DF0000E9A6FD6EF0DF050C09BF097C0C7
:101B5600D9FF98C0DAFFDF500F0B996F9B51991987
:101B6600F80B99199B6F97C0D9FF98C0DAFFDF3839
:101B7600070B996F9947994799479B519919C70B35
:101B860099199B6F9B9D97C0D9FF98C0DAFFDFAE6E
:101B960002D09B8F02D000019B9F9B0E946F000E7C
:101BA600956F93EC0EF000019A51120000019751C7
:101BB6009811D8A4E1EF0DF0E3EF0DF0E7EF0DF08B
:101BC600000E9A6F16EF0EF097C062F098C063F0A1
:101BD600000E646EA5EC0AF000019A6F97C094F0AF
:101BE60098C095F099390F0B966F50EC0DF00001E7
:101BF6009A6F97C094F098C095F002EC10F000012F
:101C06009A6F97C094F098C095F099C096F050ECF2
:101C16000DF000019A6F97C094F098C095F002EC11
:101C260010F000019A6F9A511200010E666E625012
:101C36006310D8A421EF0EF023EF0EF036EF0EF06E
:101C4600000E666E55EF0EF0F28EF28CF28855EFAE
:101C56000EF0F28EF28CF08655EF0EF0F28EF28CCC
:101C6600F08855EF0EF020EE04F06250D92663504E
:101C7600DA22DF50646E656A6550000AD8B446EF12
:101C86000EF023EF0EF06450000AD8B427EF0EF0E2
:101C9600010AD8B42CEF0EF0030AD8B431EF0EF0D7
:101CA60023EF0EF066501200000195519611D8A44C
:101CB6005FEF0EF061EF0EF065EF0EF0000E976F1E
:101CC60091EF0EF095C062F096C063F0CCEC0EF08A
:101CD6000001976F95C062F096C063F005EC0FF0B7
:101CE6000001976F95C062F096C063F03BEC0BF075
:101CF6000001976F95C06BF096C06CF02CEC10F05D
:101D060095C065F096C066F065EC0CF095C062F083
:101D160096C063F018EC0EF00001976F9751120011
:101D2600000194519511D8B49BEF0EF09DEF0EF083
:101D3600AEEF0EF094C0D9FF95C0DAFFDF30E8327F
:101D4600E832070B6C6E070E6C64ACEF0EF0AEEF6C
:101D56000EF0B2EF0EF0000E966FCAEF0EF094C0C2
:101D660062F095C063F066EC09F00001966F94C0CE
:101D760062F095C063F094C0D9FF95C0DAFF000EFB
:101D8600DFBE010E646EA5EC0AF00001966F965157
:101D96001200010E666E62506310D8A4D5EF0EF0E5
:101DA600D7EF0EF0E4EF0EF0000E666E03EF0FF0C5
:101DB600F29803EF0FF0F09603EF0FF0F09803EFB1
:101DC6000FF020EE04F06250D9266350DA22DF507D
:101DD600646E656A6550000AD8B4F4EF0EF0D7EF6A
:101DE6000EF06450000AD8B4DBEF0EF0010AD8B446
:101DF600DEEF0EF0030AD8B4E1EF0EF0D7EF0EF0E7
:101E060066501200010E666E62506310D8A40EEF83
:101E16000FF010EF0FF01DEF0FF0000E666E3CEFA7
:101E26000FF0F2923CEF0FF0F0903CEF0FF0F092D3
:101E36003CEF0FF020EE04F06250D9266350DA2210
:101E4600DF50646E656A6550000AD8B42DEF0FF056
:101E560010EF0FF06450000AD8B414EF0FF0010A27
:101E6600D8B417EF0FF0030AD8B41AEF0FF010EF3B
:101E76000FF06650120058505910D8A445EF0FF0D5
:101E860047EF0FF049EF0FF076EF0FF04DC05BF024
:101E960058C0D9FF59C0DAFFDF500F0B5A6E5B509E
:101EA6005A18F80B5A185B6E58C0D9FF59C0DAFF9A
:101EB600DF38070B5A6E5A465A465A465B505A182E
:101EC600C70B5A185B6E5B9C58C0D9FF59C0DAFF26
:101ED600DFAE02D05B8E01D05B9E5B0E516E000EB4
:101EE600526E07EC0DF0120046EC11F0250E0001C3
:101EF600956F000E966F57EC0EF06D6E1F0E00017B
:101F0600956F000E966F57EC0EF06D6E190E000170
:101F1600956F000E966F57EC0EF06D6E330E000146
:101F2600976F000E986F98EC0DF06D6E320E0001F3
:101F3600976F000E986F98EC0DF06D6E310E0001E4
:101F4600976F000E986F98EC0DF06D6EA9EF0FF07D
:101F560007EF00F04E0EF66E220EF76E000EF86ECC
:101F660000EE80F010EE14F00900F5CFEEFFE5501C
:101F7600E150FAE18C0EF66E200EF76E000EF86E4A
:101F860000EE01F010EE33F00900F5CFEEFFE5505C
:101F9600E150FAE100EE34F01D0EEE6AE806FDE1CE
:101FA6006E906E92000177EF0FF00001945195113B
:101FB600D8A4E0EF0FF0E2EF0FF0E6EF0FF0000E1F
:101FC6006C6E00EF10F0010E9425626E000E9521E6
:101FD600636E010E646EA5EC0AF0030EE82EFED7C2
:101FE60000F0010E00019425626E000E9521636ECD
:101FF600000E646EA5EC0AF06C6E6C5012000001C7
:1020060094519511D8A40AEF10F00CEF10F010EFD0
:1020160010F0000E6C6E2AEF10F0010E9425626E21
:10202600000E9521636E010E646EA5EC0AF0030E98
:10203600E82EFED700F0010E00019425626E000E18
:102046009521636E000E646EA5EC0AF06C6E6C5002
:1020560012006B506C10D8A433EF10F035EF10F06F
:102066003AEF10F0000E0001946F44EF10F0020EEC
:102076006B24626E000E6C20636E66EC09F0000144
:10208600946F94511200890F8A0F8B0F8C0F8D0F4E
:10209600920F930F940F950F960F010101017E2267
:1020A6005101020162224901010070224101000131
:0920B600020A121A222A22120267
:1020C000F09244504510D8B468EF10F06AEF10F069
:1020D00076EF10F002D876EF10F00500FA6E44505B
:1020E000FD6E4550FE6EFF6AFA5012001200F0902D
:1020F00046504710D8B47FEF10F081EF10F08DEF0D
:1021000010F002D88DEF10F00500FA6E4650FD6E0B
:102110004750FE6EFF6AFA5012001200F2924850C9
:102120004910D8B496EF10F098EF10F0A4EF10F02B
:1021300002D8A4EF10F00500FA6E4850FD6E495029
:10214000FE6EFF6AFA5012001200010E646E6250B9
:102150006310D8A4AEEF10F0B0EF10F0B4EF10F0B1
:10216000000E646EB8EF10F062C044F063C045F03A
:1021700064501200010E646E62506310D8A4C3EF65
:1021800010F0C5EF10F0C9EF10F0000E646ECDEF47
:1021900010F062C046F063C047F064501200010EB8
:1021A000646E62506310D8A4D8EF10F0DAEF10F02C
:1021B000DEEF10F0000E646EE2EF10F062C048F047
:1021C00063C049F0645012002B0E00019B6F000E9B
:1021D0009C6F08EC0AF08A0E00019F6F000EA06F42
:1021E000D1EC0BF01200516EF2905150D8A4FBEFDD
:1021F00010F0FDEF10F0FFEF10F0FFEF10F0120005
:10220000516EF2905150D8A408EF11F00AEF11F07E
:102210000CEF11F00CEF11F01200516EF2905150D2
:10222000D8A415EF11F017EF11F019EF11F019EF15
:1022300011F01200516EF2905150D8A422EF11F01B
:1022400024EF11F026EF11F026EF11F01200800FAD
:10225000810F820F830F840F323A030B131B232B42
:10226000333B320E586E000E596E3EEC0FF01200EA
:10227000330E586E000E596E3EEC0FF01200310E08
:10228000586E000E596E3EEC0FF01200E4EC10F0A8
:0222900012003A
:020000040020DA
:08000000FFFFFFFFFFFFFFFF00
:020000040030CA
:0E000000FF02091EFF8181FF0FC00FE00F40BD
:00000001FF
